:020000040800F2
:10000000800700206D020008291D0008751C0008EB
:1000100000000000000000000000000000000000E0
:10002000000000000000000000000000BD1D0008EE
:1000300000000000000000002B1D0008BF1D00088C
:100040007F0200087F020008811D00087F0200086F
:100050007F020008C11B0008FD1B0008391C0008B6
:100060007F020008BD1B00087F0200087F02000815
:10007000A91B00084D1F0008711F0008B11F0008D0
:10008000D51F0008FD1F00087F020008D51E0008CC
:100090007F020008FD1E0008251F00087F020008DF
:1000A0007F0200087F0200087F0200080D20000880
:1000B0004D2000087F0200087F0200087F02000830
:1000C00000F002F800F0C3F80CA030C8083824187B
:1000D0002D18A246671EAB4654465D46AC4201D180
:1000E00000F0B5F87E460F3E0FCCB64601263342EF
:1000F00000D0FB1AA246AB4633431847D02D000070
:10010000F02D0000103A02D378C878C1FAD852070F
:1001100001D330C830C101D504680C6070470000BD
:100120000023002400250026103A01D378C1FBD813
:10013000520700D330C100D50B60704710B56E294F
:1001400002D100F01BFB10BD702902D100F05DFC54
:1001500010BD662902D102F0BFFD10BD652902D194
:1001600002F0BAFD10BD672902D102F0B5FD10BD45
:10017000612902D1C046C04610BD03681B0A01D3E5
:1001800080231943692902D100F0C2FA10BD642905
:1001900002D100F0BDFA10BD752902D100F0B8FA05
:1001A00010BD6F2902D100F0DBFB10BD782902D110
:1001B00000F018FC10BDE92902D100F077FB10BD5A
:1001C000E42902D100F072FB10BDF52902D100F044
:1001D0006DFB10BDEF2902D100F0CEFB10BDF82958
:1001E00002D100F00DFC10BD0368DB0901D38023B0
:1001F0001943632902D100F0A8FF10BD732902D171
:1002000000F0ABFF10BDE32902D100F0B5FF10BD37
:10021000F32902D100F0B8FF10BD002010BD1FB5BA
:100220000098019900F0DDF901F058F80400002071
:10023000002102F03BFD401C60600020002102F024
:100240001FFDE06000F09AF91FBD10B510BD01F070
:100250001EF81146FFF7E3FF02F09CFB01F0B6FB2E
:1002600003B4FFF7F2FF03BC01F00AF80748804728
:1002700007480047FEE7FEE7FEE7FEE7FEE7FEE78A
:1002800004480549054A064B70470000591E0008FE
:10029000C1000008800100208007002080030020AA
:1002A0008003002070B5064600F07AF905683046F4
:1002B0000B30C408E400B44201D8002070BD686867
:1002C0002A46002818D00168A14211D30B462146C6
:1002D00008318B4208D3436801194B6003681B1B2C
:1002E0000B605160046001E041685160001D70BD09
:1002F000024640680028E6D12146284600F05CF915
:100300000028DCD170BD70B50446051F00F048F927
:100310000068002C1AD0446801E020466468002C74
:1003200001D0AC42F9D301680A18AA4204D12A6864
:1003300005468918016000E0456028684119A1421E
:1003400005D16168696021684018286070BD6C60E3
:1003500070BD00007CB51D4616460C00009001D013
:100360000019401E084B7B442A46694601903046DE
:1003700000F01DFA002C054603D06946002000F06D
:1003800029FA28467CBD00007504000000220309FC
:100390008B4273D3030A8B4258D3030B8B423CD35B
:1003A000030C8B4221D312E003460B437FD400227F
:1003B00043088B4274D303098B425FD3030A8B42F9
:1003C00044D3030B8B4228D3030C8B420DD3FF2263
:1003D000090212BA030C8B4202D31212090265D031
:1003E000030B8B4219D300E0090AC30B8B4201D3E4
:1003F000CB03C01A5241830B8B4201D38B03C01A2B
:100400005241430B8B4201D34B03C01A5241030BA1
:100410008B4201D30B03C01A5241C30A8B4201D352
:10042000CB02C01A5241830A8B4201D38B02C01AFD
:100430005241430A8B4201D34B02C01A5241030A74
:100440008B4201D30B02C01A5241CDD2C3098B4259
:1004500001D3CB01C01A524183098B4201D38B01D6
:10046000C01A524143098B4201D34B01C01A524179
:1004700003098B4201D30B01C01A5241C3088B42BE
:1004800001D3CB00C01A524183088B4201D38B00A9
:10049000C01A524143088B4201D34B00C01A52414B
:1004A000411A00D201465241104670475DE0CA0F22
:1004B00000D04942031000D34042534000229C46E2
:1004C00003098B422DD3030A8B4212D3FC228901EC
:1004D00012BA030A8B420CD3890192118B4208D3C2
:1004E000890192118B4204D389013AD0921100E024
:1004F0008909C3098B4201D3CB01C01A5241830938
:100500008B4201D38B01C01A524143098B4201D364
:100510004B01C01A524103098B4201D30B01C01A8F
:100520005241C3088B4201D3CB00C01A5241830809
:100530008B4201D38B00C01A5241D9D243088B425F
:1005400001D34B00C01A5241411A00D20146634602
:1005500052415B10104601D34042002B00D5494266
:10056000704763465B1000D3404201B50020C0468F
:10057000C04602BD704770477047000070B5064C1A
:100580007C44064D7D4403E0206800198047241D0B
:10059000AC42F9D170BD0000942A0000942A0000FA
:1005A0000048704724010020004870475001002097
:1005B000704770477047704738B504460A460020B8
:1005C0006946C046C046002805D00246204600992C
:1005D00000F0F4FA012038BD10B5012000F0FEFD56
:1005E00010BDF8B5C046C046054600200C46102098
:1005F000C0460646A819A0420DD9324669460020D9
:10060000C046C046070001D100F0E8FD0098A042B6
:1006100000D00546C419FFF7C3FFF61D0746056065
:10062000F008C0004619284600F008F8B44204D08B
:1006300031463868A21B00F0C1FAF8BD0021016004
:100640004160806070471020704770B5044685692E
:100650000068C10601D5302600E02026C00707D07B
:1006600070BD62683046A1689047206A401C2062D5
:100670006D1EF6D570BD70B5044685690078C0075B
:1006800007D170BD6268A16820209047206A401C95
:1006900020626D1EF6D570BD09684A0501D540B2CD
:1006A0007047C905FCD500B2704709684A0501D5F5
:1006B000C0B27047C905FCD580B2704770B50C4612
:1006C0000546012A05D02878800600D5EA6900236E
:1006D00002E0012305E05B1C934202D2E05C0028AB
:1006E000F9D1A869E618C01AA861286AC01828625A
:1006F0002846FFF7AAFF04E06A682078A968641C0E
:100700009047B442F8D32846FFF7B5FF70BD00000C
:10071000F7B5002575291068009914A611D0FFF7C8
:10072000BBFF002802DA404211A608E000990968E0
:100730008A0701D50FA602E0490704D50EA60125B8
:1007400001E0FFF7B2FF009F0024243704E000F02F
:100750004BFD30313955641C0028F8D12B46324608
:100760002146009800F081FAFEBD00000000000064
:100770002D0000002B00000020000000116802681E
:10078000006A530501D5087009E0D30501D508803A
:1007900005E0130602D5C21705C100E0086001207C
:1007A0007047000001694A1C02610878704700B573
:1007B0008FB002910021059105490193794403917D
:1007C00011460490684600F02DF90FB000BD0000FE
:1007D000E5FFFFFF0A681070521C0A6070470CC9E1
:1007E00008399A4202D2531C0B6010707047000007
:1007F000F7B50446154686B02B487844002703C851
:100800003E460090019111E007986A467100415AF6
:1008100002A800F0BDFC411C07D02178890603D551
:10082000E269391891420ED83F18761C207880066C
:1008300002D5E069B84206DDAE42E5DB07987100FB
:10084000405A0028E0D1A069C01BA0612046FFF7F4
:10085000FCFE154878445A3803C8009000200191E6
:1008600016E041006A460798415A02A800F090FC41
:100870000590401C0AD0002505E0626802A8A16826
:10088000405D90476D1C05988542F6D30498401C46
:10089000B0420490E5DB206AC01920622046FFF7D1
:1008A000EAFE09B0F0BD0000E2250000F7B5D21D58
:1008B0000025D20815A6D200F52905CA11D0002AB4
:1008C00005DA00214042914111A60A4608E000994C
:1008D00009688B0701D50FA602E0490701D50EA6CE
:1008E00001251146009F0024243704E000F080F920
:1008F00030323A55641C02460A43F7D12B46324641
:100900002146009800F0B1F9FEBD00000000000093
:100910002D0000002B0000002000000070B50446F0
:100920000021243408E05507D2086D0F3035655496
:100930005D072A43DB08491C15461D43F3D10468B3
:10094000002310A2250708D5A40601D4002904D04D
:10095000C46901230CA2641EC46100F086F970BD55
:1009600010B5044621461068FFF79FFE002302469B
:100970002046FFF7D3FF10BDD21DD108C9000CC916
:10098000CCE700000000000030000000F8B50F4682
:100990000188090502D5224C7C4402E0204C7C44AD
:1009A0000E3405460021243508E016071209360FDB
:1009B000A65D6E541E0732431B09491C16461E4392
:1009C000F3D1224604780023240705D5702F06D0E2
:1009D000002901D00223113200F047F9F8BD0123AC
:1009E0001032F9E770B504460D4621461068FFF74E
:1009F0005CFE0023024629462046FFF7C7FF70BD74
:100A0000D21DD308DB000CCBC0E730B40368202430
:100A10001268234303600823C36130BC0023B5E799
:100A20004C240000F3B50446002081B0206220462B
:100A3000E1688847002872D0252802D06268A16842
:100A4000ABE0594F00267F442046E16888472028C4
:100A5000054608DB312D06D27819203800780028A9
:100A600001D00643F0E7B00701D5042086430020FB
:100A7000E0610746A0612A2D0AD0284601F00EFE4B
:100A8000002827D0B8000019303D0090856119E09A
:100A90000298BA00121902C8916102902046E168DA
:100AA0008847012F054617D1E06900281FDA20206A
:100AB00086431CE000980A21806948430099401948
:100AC000303888612046E1688847054601F0E6FD38
:100AD0000028EFD1012F0AD02E2D08D12046E16841
:100AE00088470546202006437F1C022FC3DBA069F0
:100AF000002803DA4042A06101200643F00701D03C
:100B0000102086436C2D0BD0682D09D04C2D3CD085
:100B10006A2D38D0742D38D07A2D36D016E040E0CA
:100B2000E1682F4620468847B842054609D16C2F18
:100B300029D001208002E168064320468847054607
:100B400004E06C2F1DD0FF2001300643002D28D07B
:100B500028464138192803D80120C0020643203511
:100B6000204626602946029A1646FFF7E7FA002833
:100B700010D001280BD0F61DF008C00008300290FC
:100B800055E74020E1E78020D5E70020D3E7361D78
:100B900002964CE762682846A1689047206A401C8C
:100BA00044E7206AFEBD0000C623000010B500F037
:100BB0002FFB10BD004870471C01002010B50346F4
:100BC000406801E003464068002801D08842F9D31C
:100BD0001868C3188B4206D0CB1CD808C000001D73
:100BE000411A521A0146081D0A60FFF78CFB10BD1E
:100BF0000B4670B5024689078008084319469D08D0
:100C0000141AA94125090807054308092C19484168
:100C1000250A01060D43010A2C194141200C0D043F
:100C200028430D0C00194D41002140194D41C008C9
:100C300069070843E908840F8D00254384002418C0
:100C40004D4124196D41121BAB4107E00925ED43CD
:100C50002C11521963410024401C61411C460A2595
:100C60000026551BB441F1D270BDFFB504460D46B8
:100C700081B0243000902168880604D51022E069F4
:100C80009143216000E00120A84201DD471B00E004
:100C900000270498A1697A191018081AA061207811
:100CA000C00602D42046FFF7D0FC002608E00398D7
:100CB0006268A168805D9047206A401C761C2062B3
:100CC00004988642F3DB2078C0060AD52046FFF759
:100CD000BCFC06E06268A16830209047206A401C96
:100CE000206238467F1E0028F4DC07E00098626826
:100CF000A168405D9047206A401C206228466D1E16
:100D00000028F3DC2046FFF7B6FC2078000602D569
:100D1000022005B0F0BD0120FBE700007047FFB5E1
:100D20000C461E468FB003CA089009914F007D0DF6
:100D300000D16D1E002108460020C0460321099AFB
:100D400089050840002A03DA82008018400808401C
:100D5000800D01280A9002DD0020C0430A90089807
:100D600007430DD0F048F149281848430714189854
:100D700000281DD07542291E1DDD0A9842421BE045
:100D80001898012802D00020302104E00020F2430E
:100D900005E02154401CB042FBDB30460022189B8A
:100DA000002121540F998B600A60486013B0F0BD98
:100DB000BD1B6D1CDFE70A9A002900DA69420BA807
:100DC00000F0D8FA0BAB07CB03AB07C3089909981F
:100DD00000F03CFB6B4607C30146D5480918002DBF
:100DE00000910BDDD24903980A9A4942401800232A
:100DF00003A90390684600F099FD08E003990A9A58
:100E00000023081803A90390684600F039FD6B46DB
:100E100007C30004000C03D00020C043410800E0D9
:100E20001046189A002A03D00022009215461EE0B0
:100E3000751E05D4FFF7DCFE303262556D1EF9D504
:100E400001220843079602D000227F1C04E020788C
:100E5000302801D100227F1E002A069787D01EE08D
:100E6000112D07DAFFF7C4FE303262556D1C0246C1
:100E70000A43F5D1084303D00098002819D00EE0AA
:100E80000021681E05E0235C625C63542254401E0E
:100E9000491C8142F7DBA81B401E07950690079A64
:100EA00018990020A0540F98079B069A81600CC0E7
:100EB0007CE711260020189059E7D21DF0B50D46A9
:100EC0000446D10893B0C90003C90C900D9101F0FC
:100ED000ABFB02460D98C00F01D02D2007E0206823
:100EE000810701D52B2002E04007C00F4001032AF3
:100EF0000F9001D0072A05DB03462946204600F063
:100F0000F5F90EE12078800601D5E76900E00627B3
:100F10002846652D04D0662814D0672D69D12DE0B0
:100F20000020112F009001DB112300E07B1C0CAA94
:100F300003A910A8FFF7F3FE1199002610987D1C55
:100F40000E9142E001203B460CAAC0070B90012005
:100F5000009003A910A8FFF7E2FE119D12981099C6
:100F6000002600280E9501D1781C0D18781B02D49C
:100F700046427D1C761EE81B00903AE0012F00DA05
:100F800001270020112F009001DD112300E03B46D6
:100F90000CAA03A910A8FFF7C2FE11993D461098AC
:100FA00000260E91217809070BD40E99A94200DA88
:100FB0000D4603A9012D04DD4A19203AD27F302ABB
:100FC00006D0B84201DA011D04DA012100910FE0D8
:100FD0006D1EEFE7002802DC86192D1A03E0411C84
:100FE000A94200DD0D46801B401C00900120C00777
:100FF0000B902078000705D40098A84202DB00205F
:10100000C043009069460020C8720B98012102AFCE
:101010000337C907884225D0022010902B20119059
:101020000B9800280BDA40420B902D20119006E01F
:101030000B9800F0D9F830317F1E0B903970109961
:10104000481E00291090F3DC0B980028F0D111986D
:101050007F1E38702088000501D5452000E06520FE
:101060007F1E387001A8C01BC01D0B900F98002870
:1010700000D0012041190098C01709180B980818D2
:10108000A169081A401EA0612078C00602D420463B
:10109000FFF7DBFA0F98002805D06268A168904737
:1010A000206A401C20622078C00625D52046FFF724
:1010B000CCFA21E0002E07DB0E98B04204DD03A835
:1010C0006268805DA16802E06268A1683020904794
:1010D000206A761C401C20620098401E0028009068
:1010E0000AD100F0FBF8C06862680168405CA16842
:1010F0009047206A401C206228466D1E0028D9DCDB
:1011000007E062683878A1687F1C9047206A401C1D
:1011100020620B99481E00290B90F2DC2046FFF755
:10112000AAFA032042E6000001FCFFFF104D000078
:10113000E1DFFFFF10B54369002B02D0C046C04677
:1011400001E0FFF7BBFA012010BD127801462431FF
:101150000A7000224A700122ECE711680022D24393
:10116000E8E710B54369002B02D0C046C04601E055
:10117000FFF73EFB012010BD128801462431828416
:101180000022C2840122ECE711680022D243E8E782
:1011900070B516460C46054600F098F80368FF2027
:1011A0000230C05C012807D0FF2C0ED8185D002843
:1011B0000BD001202C7070BDFF333246214608331E
:1011C0001868C3182846984770BD0020C04370BDFA
:1011D00010B5002801D000F053F810BD10B500F094
:1011E00021FCFFF7F5FF10BD01468008081A02092F
:1011F0001018020A1018020C1018C00882001218E9
:101200005200891A01E0401C0A390A29FBD27047B2
:1012100010B500F00EF80169002903D00022026128
:10122000884701E08068804700F0D8FB10B500F0E7
:10123000D5FB70B500F056F804680546002C15D1B2
:101240002020FFF72FF8040012D0002009492C605D
:1012500003C4094921602071A060E0600749206152
:10126000083C002901D000F005FCE061204670BD7B
:1012700000F0B4FB000000002D1200080000000088
:1012800001491820ABBEFEE72600020070477546F4
:10129000FFF790FCAE46050069465346C008C00003
:1012A000854618B020B5FEF7EBFF60BC0027490863
:1012B000B6460026C0C5C0C5C0C5C0C5C0C5C0C5EE
:1012C000C0C5C0C5403D49008D46704710B500F00F
:1012D00005F8001D10BD00BFD5190000004870477B
:1012E0003C0100200048704758010020F8B51F4617
:1012F000044601230068DB02032601461840072A42
:1013000005DB002801D017A506E017A504E000289A
:1013100001D016A500E016A5102081432160A06928
:10132000C01E002FA06101D0401EA0612046FFF723
:101330008CF9002F09D038466268A1689047206A6E
:10134000401C2062C01C206206E0206AFAE7626846
:101350002878A1686D1C9047761EF8D22046FFF7CA
:101360008AF9F8BD4E414E006E616E00494E46004E
:10137000696E6600F7B516468AB0334878446C4605
:1013800003467C33C06F5A689B680DC42E4878446E
:10139000763003AC0DC80DC43720C00108183721C2
:1013A0001B30FFF701F805460C46803D1B3C02D57B
:1013B0006442012000E000200027099010E0E007CF
:1013C0000CD00C2020497843794432464C394118DE
:1013D0006846012300F054FA6B4607C364107F1C73
:1013E000002CECD1184F7F442E3F16E0E80712D0B6
:1013F0002001C0190EC80691089307920068F042B8
:1014000001D1981908903246012306A903A800F0DB
:1014100037FA03AB07C36D10641C002DE6D10998A1
:10142000002806D032466946012303A800F07EFA60
:1014300005E001233246694603A800F021FA0A9B21
:1014400007C30DB0F0BD0000A41A00000346400021
:101450000A4610B5400D0BD00121C9070F24A40284
:1014600000191C0364082143540D2143D20207E0F4
:1014700000210120F2E7D40F490021435200401E11
:101480000029F8DADB0FDB07184310BDFFB50D4666
:10149000144685B04868516801F0AEF8009101909B
:1014A000A868A16801F0A8F802910390A868616893
:1014B00001F0A2F8029A12188242029201D201208F
:1014C00000E00020019A0B18D2180028019202D0E7
:1014D0008A4202D903E08A4201D2012000E00020C2
:1014E0000099081800906868A16801F085F8029AD0
:1014F00012188242029201D2012000E00020019ADB
:101500000B18D2180028019202D08A4202D903E0B7
:101510008A4201D2012000E00020009908180090C2
:101520002868216840004900400849084018FA49E5
:10153000471814E001994000C90F08430090019832
:1015400002994000C90F0843019002980399400096
:10155000C90F08430290039840007F1E0390009833
:101560000028E7DA0898002801D0EC4E00E00026B9
:10157000B74201DA012000E00020002804902AD0C0
:10158000F71BF806C00E15D0029B2021091A039AFA
:101590008B401A430392029A019BC2408B401A432C
:1015A0000292019A009BC2408B4000991A4301921B
:1015B000C14000917B110DD06F460320C11A03D5A5
:1015C00000218200B95003E08A008100BA587A50A5
:1015D000401EF3D5374603980299002800D0012019
:1015E000014308980291002808460CD0002800D03A
:1015F00001200199019A490508430121D20AC90233
:10160000D202019200E001210E9B0122D207012BA0
:1016100002D0002B03D013E0002807D120E0904235
:1016200004D890420CD1019B0B4209D0019B591860
:10163000019105D10099491C009101D17F1C0092B4
:1016400000280DD0102108460020C046049800282C
:1016500006D00F98002803D0082108460020C04675
:1016600028682168019B009A4840C10F0598C90766
:1016700039430EC009B0F0BDFFB587B0099A08988C
:1016800008995368926840688968964600220393D7
:1016900017469446089A12685300099A5B08126824
:1016A000520052089A1A9E4BD4180A9A002A01D066
:1016B000352200E0402206920022012315460492C2
:1016C000DB07059324E0002D05D175460346039EF4
:1016D0004D1BB34109D375466646039B491B049DC8
:1016E0009841059B7519AC465F4163463B4308D062
:1016F000059B049EDD0776082E435B080496059340
:1017000001E0521E641EC50FED0749184041521CEE
:10171000069B9A42D7DB002D04D17546039A6B1ABB
:10172000824101D203200CE0039A0B466B404240F9
:10173000134303D0014303D0012002E0022000E064
:101740000020614601910021009702910A99002929
:1017500005D0614640020143704B019102E08007D1
:10176000002302909C4201DA012000E000200700E3
:101770003AD01A1BD006C00E15D0029D2021019C24
:10178000091AC5408C402543029C8C4000D001249E
:101790002543019C0295009DC4408D4000992C4337
:1017A0000194C140009154111DD06D4602210022C8
:1017B00002290CD10320001B07E0002804DB86006F
:1017C000AE59002E00D00122401C0328F5DB081B77
:1017D00002D588002A5004E08000285810438A006F
:1017E000A850491EE3D51C460A98002802980CD040
:1017F000002800D001200199019A490508430121E0
:10180000D20AC902D202019200E00121109B0122FA
:10181000D207012B02D0002B03D013E0002807D100
:101820001FE0904204D890420CD1019B0B4209D09A
:10183000019B5918019105D10099491C009101D1D2
:10184000641C009200280CD0102108460020C046DD
:10185000002F06D01198002803D008210846002048
:10186000C04608980999019A009B00680968484099
:10187000C10F0798C907214382600AC00BB0F0BDB1
:1018800000B585B0019300920A460146002302A8E4
:10189000FFF7FCFD02A807C805B000BDFFB50A466A
:1018A0001F4685B00799019301230091014602A8C4
:1018B000FFF7ECFD02990398049ECA0F4900D20776
:1018C00000920F22490892028C1A0021002800DBA6
:1018D0000C46450013486D08844214D3079A002A29
:1018E00004DA441E0026104DF64302E004460D467D
:1018F0000E46102108460020C046002F03D00421C8
:1019000008460020C0462005E90A0843009908431C
:101910006905F20A1143ADE602C0FFFF013C000079
:10192000FF3F0000FF070000FFFFFF7F00B585B00D
:10193000019300920A460146002302A8FFF79CFE8D
:1019400002A807C8A8E7FFB50A461F4685B0079951
:10195000019301230091014602A8FFF78DFE029931
:101960000398049ECA0F4900D20700920F2249082B
:1019700092028C1A0021002800DB0C464500114819
:101980006D08844214D3079A002A04DA441E002604
:101990000D4DF64302E004460D460E461021084662
:1019A0000020C046002F03D0042108460020C04676
:1019B0002005E90A0843009908436905F20A114322
:1019C00058E60000FF070000FFFFFF7F10B5044648
:1019D000C046C0462046FEF743FC10BD10B50020AF
:1019E00000F06FF8FEF731FC0120FFF749FC10BD55
:1019F00070B505460C460A2000E06D1C00F05BF84F
:101A0000002D06D028780028F7D102E0641C00F0F1
:101A100052F8002C02D020780028F7D10A2000F0DC
:101A20004AF870BD10B5012805D0002103A0FFF7CA
:101A3000DFFF012010BD09A1F8E70000534947521C
:101A4000544D454D3A204F7574206F66206865618E
:101A500070206D656D6F7279000000003A20486556
:101A60006170206D656D6F727920636F7272757031
:101A70007465640010B58820FEF714FC002801D0BE
:101A80000021017010BD802904D8002802D00178FF
:101A9000002901D0002070470121017008307047F3
:101AA000002803D002460832914201D0002070473E
:101AB00000210170704708B5694608700320ABBE6D
:101AC00008BD10B500F054F8FFF782FB10BD000010
:101AD00082078B079A4237D170B5920F0AD0032440
:101AE00002780B78401C491C002A2BD09A4229D13D
:101AF0002042F5D11D4EF40104C808C9951B954339
:101B0000254010D19A4207D104C808C9951B9543B6
:101B1000254008D19A42EFD012BA1BBA01209A424E
:101B200000D2404270BD12BA1BBA2DBA1824100060
:101B3000E0401900E140401A05D12E00E64002D1F4
:101B4000083CF4D1D01A70BD02780B78401C491CB7
:101B5000002A09D09A4207D102780B78401C491C10
:101B6000002A01D09A42EFD0D01A7047010101013A
:101B700010B5002102A0FFF73BFF012010BD0000BF
:101B8000534947414252543A2041626E6F726D612F
:101B90006C207465726D696E6174696F6E0000000F
:101BA000002101604161704703480168C906C90FFF
:101BB00001D01021016070470024014070470000EF
:101BC0000B4841690C4AC943CB070A49126808D03F
:101BD0004369DB439B0709D4022343614868012121
:101BE0001047012343610868002110477047000037
:101BF0000004014064000020240000200B484169DB
:101C00000C4AC9434B070A49126804D404234361B0
:101C10008868022110474369DB431B0704D408236B
:101C20004361C86803211047704700000004014069
:101C30006400002024000020F8B50A4E0A4D0B4F26
:101C40000424A200B0586B690146994305D168612C
:101C5000B858074A214612689047641CE4B20F2C1A
:101C6000EFD9F8BD602D0008000401406400002099
:101C700024000020FEE70000F8B51B4C0546206854
:101C80000E46C043800101D40020F8BD29791748D1
:101C90000907090F491CFEF779FB29688902090F1A
:101CA000891C484302462068C043800707D5206846
:101CB0000121084320602068C0438007FBD46B6883
:101CC000296801206568C0037B27FF03BD430843E3
:101CD00005436560E06A000900011843E06231468F
:101CE000104600F0D9F9F8BD0010024000127A0049
:101CF00010B5044600F01AF8084920604A68F0233D
:101D00001A40074B12099A5CD04060604968054A46
:101D10004905490F515CC840A06010BD0010024049
:101D2000E82C0008F82C00087047704710B5114CDB
:101D300061680C20014010481BD0042919D00829E3
:101D400017D162680321C9030A400121C903521A4D
:101D500004D0521A02D08A4200D10848E16A090729
:101D6000090F491CFEF712FB61688902090F891CE3
:101D7000484310BD0010024000127A00006CDC02E3
:101D800010B50B4CA068C043C0040CD4E068C0433D
:101D9000C00508D4074800688047E06880210840F3
:101DA000FF388238E060012003494004486110BDDB
:101DB000002800402000002000040140704710B5BA
:101DC00000F074FC10BD00001FB5064903C9009067
:101DD000002001910290039002A96846FFF74CFF92
:101DE0001FBD0000582D0008F8B5164E71680C2074
:101DF00001401548154C03D0042901D0082901D011
:101E0000206016E0716872680323DB031A408902C0
:101E10000D0FF16A01270907090F3F04491CAD1C8A
:101E2000BA4202D09A4200D10948FEF7AFFA68439D
:101E30002060706807490006000F085C2168C140F7
:101E40002160F8BD0010024000127A00000000205E
:101E5000006CDC02E82C00081248016801221143E2
:101E600001604168104A1140416001680F4A114009
:101E700001600168012292049143016041683F22A0
:101E8000120491434160C16A09090901C162016BF1
:101E9000074A11400163416B490849004163002131
:101EA00081607047001002400CB8FF08FFFFF6FE8B
:101EB0002CFEFCFF05494A68002A02D0044B9A42D6
:101EC00002D14860012070470020704714000020B4
:101ED0007D2C000806480169C943C90706D1891E3F
:101EE0000161054903480968806808477047000098
:101EF0000020004044000020100000200648016936
:101F0000C943C90706D1891E01610549034809680B
:101F1000C0680847704700000044014044000020AA
:101F20001000002006480169C943C90706D1891E6F
:101F300001610549034809680069084770470000C6
:101F400000480140440000201000002006480169BC
:101F5000C907C90F06D00121C94301610349088897
:101F6000401C088070470000002C01402800002021
:101F700070B50C4C20690C4DC0430C4E800705D445
:101F80000220C04320613168286888472069C04327
:101F9000400705D40420C043206131682868884781
:101FA00070BD0000002C0140440000201000002003
:101FB000012080070169C943C90706D1891E016153
:101FC00003490248096840680847704744000020F8
:101FD0001000002006480169C943C90706D1891EBF
:101FE00001610549034809684068084770470000D7
:101FF000000400404400002010000020012002499D
:10200000C0430861704700000010004070B50C4CE0
:10201000E0690C4D80060C4EC00F05D032680021DF
:102020002868904708202062E0694006C00F05D06C
:1020300032680121286890474020206270BD00006E
:1020400000380140080000200400002070B50F4C4B
:10205000E0690F4D80060F4EC00F0BD03268002193
:1020600068689047E0698006C00F03D0A069082126
:102070000843A061E0694006C00F05D03268012125
:10208000686890474020206270BD00000044004016
:102090000800002004000020F0B4334A03465468CE
:1020A00001202406314D240F2D5D314C2468AC40B5
:1020B0009C4213D20025002B0ED02E4FBB4200D9DC
:1020C00001252D4E37687F087F002F433760366823
:1020D000F607F60FAE4201D0002020E01568012679
:1020E0003606354315601568ED43AD01FBD40E6827
:1020F0005568F027BD433543556056680225B6083C
:10210000B6002E4356600C2655683540082DFBD18D
:102110004E68556807273F02BD43354355609C42D2
:1021200015D901200022002B0ED0124DAB4200D950
:102130000122114C25686D086D0015432560246847
:10214000E407E40F944204D00020F0BC704700285C
:10215000FBD0097809060A0F0449895CCB40044981
:102160000B60F0BC7047000000100240E82C000833
:102170000000002000366E0100200240024B80006B
:102180001960191D0A5070470400002008B5044961
:10219000CA690243CA61C9690140009108BD0000D3
:1021A0000010024008B504498A6902438A618969BE
:1021B0000140009108BD000000100240C069800687
:1021C000C00F70470246002003E0FF2B06D0401CE2
:1021D000C0B2C300CB5C9342F7D17047FF20704779
:1021E00030B418224A431218182461430818936A1D
:1021F00040691432002B04D0002806D030BC111DD9
:102200001847002801D030BC004730BC70470000A0
:1022100070B504460B480D460068861805E000F0CE
:1022200019FDB04201D2042070BDA068FFF7C6FFBF
:102230000028F4D0A068808CC005C00D2880012043
:1022400070BD00001C000020FFB50446816800201E
:1022500081B01746474BFF2603E0521C25D0401C97
:10226000C0B202019A588A42F7D1010141480D18C3
:102270006968A8688847687B22463F49FFF77EFF68
:102280000C2028560021002811DA0207120F083A04
:1022900093083A4A9B009B18DA698007C00E864073
:1022A000B24381400A43DA610DE03046DDE783083E
:1022B000334A9B009B181A688007C00E8640B243C1
:1022C00081400A431A60287B0125C106C90E2846B1
:1022D00088402C4908602069264980792839FFF711
:1022E00071FF244EC000283E801982784178206911
:1022F00000F0B9F8E06831468079FFF763FFC0006D
:10230000801982784178E06800F0ADF8A068016833
:102310000C22914311430160A0680A9A049906684F
:102320003B46194F19433E400E4306604168032364
:102330001B039943114341601448029900684A08FD
:10234000A6681018FEF722F880B2F060A0688168D5
:102350002A0311438160A068016829430160A068D5
:10236000C1698902C90FFBD0C1694902C90FF7D001
:1023700005B0F0BD282D0008E121000800ED00E0C7
:1023800000E400E000E100E0FFE9FFEF00000020D2
:102390008068C2691206D20FFBD001850120704708
:1023A000F8B50C460E4901601D4616460223182258
:1023B0000C49143000F04EF90746143F0820BC6069
:1023C00000F006F9294600F099F8F860082000F0BE
:1023D000FFF8314600F092F838613846F8BD000049
:1023E000C02E0008A11B0008F8B514460E4607468B
:1023F000002508E03868317802683846761C904736
:10240000002805D06D1C2046641EE4B20028F1D1DE
:10241000E8B2F8BD0FB470B5044640684025002806
:1024200001D000F053F906AE284600F0EFF96060E5
:10243000002814D033462946059AFDF78BFF411C2E
:1024400001D0A84205DD4035EDB2606800F03EF9EC
:10245000EAE7C2B203CC436820460838984770BC0C
:1024600008BC04B01847F0B4046883888E07256858
:10247000B60F5B435F00DF19BD4373431D43256007
:102480000D070468AE0F838865689D4373431D4341
:102490006560890604688D0F8388E1685B435E0090
:1024A0009E19B1436B431943E160036881889C68BE
:1024B00049434D0049198C430C439C608188036853
:1024C000FF290CD81C6A0846484348434843010189
:1024D000091A8C43504304431C62F0BC7047080A3D
:1024E00001464143414341430801441A586A51435C
:1024F000A04308435862F0BC704700000B071B0F55
:10250000012281B09A4082800A09817112012A4910
:10251000302A39D010DC002A1ED0102A29D0202AD7
:1025200008D1264A02604B69120213434B61496984
:102530001140009101B07047402A31D0502AF9D1A2
:102540001F4A026001224B69920513434B6149699E
:102550001140009101B070470922D20602600122A9
:102560004B69520413434B6149691140009101B01A
:102570007047144A02604B69120213434B61496968
:102580001140009101B070470F4A026001224B696F
:10259000120513434B6149691140009101B0704726
:1025A0000A4A02604B69520213434B614969114068
:1025B000009101B070470000001002400008004880
:1025C0000014004800040048000C004800100048B7
:1025D00010B5040008D1012406E0FDF7E5FF00680E
:1025E000002800D1034880472046FDF75BFE002805
:1025F000F3D010BDAD0B0008F8B5040C8BB2264625
:1026000082B25E43104658430D0C370C360400214D
:102610008019164679416E43370C360480192646D8
:1026200079416E438919F8BD4900CA02024310007E
:1026300000D004204A0D01D001221043044A490D64
:10264000914201D102210843012800D105207047A1
:10265000FF070000FFB581B01C4617460E0007D0EB
:10266000019D02E02846B047ED192046641EF9D2CC
:10267000019805B0F0BD000010B505480521FFF731
:102680003DFF0A23092203490348FFF789FE10BDD5
:102690003C00002000380140C800002030380A28E3
:1026A00001D20120704700207047000070B5064C31
:1026B000A56861882846FDF769FE6D1CA5600029A4
:1026C00001D16068804770BD1400002070B50646D7
:1026D0003546002E18D0083D2C460C496068096824
:1026E0000840002810D0206800280DD107496068F4
:1026F00009688843606006496068096840180449B1
:102700000860204600F012F970BD0000380000207B
:102710003400002070B503460C46DD1DEA08D200E7
:102720002546083DE908C900102908D90D46103D85
:10273000954204D38D1A103D114E356000E070BDF6
:10274000104D2A6000250F4E75600F4D2960002541
:102750000D4E366875600C4E366835600A4D2D6832
:102760000560074D2D684560084E45683560084E88
:10277000456835600125ED07064E356000BFDEE790
:102780002C000020A4000020BC000020300000200D
:10279000340000203800002070B5FFF715FB00F072
:1027A000BBF813487D214068C9000446FDF7EEFDE3
:1027B000104B11490422401E98420BD848610F4823
:1027C0000723C5692D022D0A4E043543C56100203B
:1027D00088610B6108691043086109492046FDF7CB
:1027E000D5FD084908700848FFF764FB70BD00007C
:1027F00058000020FFFFFF0000E000E004ED00E0D3
:1028000040420F00140000207D2C0008F8B504465B
:10281000002772B631480068002803D1304931489A
:10282000FFF778FF304800682040002853D1002C83
:1028300003D00834E01DC408E400002C4AD02B4823
:102840000068844246D82A4D28460068009003E07C
:10285000009D00980068009000984068A04203D254
:10286000009800680028F3D1684622490968884228
:1028700005D0286807460837009800682860009847
:102880004068001B10280AD9009806190098406873
:10289000001B706000984460304600F047F80098D4
:1028A000406812490968081A10490860084600681B
:1028B00011490968884203D20C4800680E49086033
:1028C000009840680849096808430099486000205A
:1028D0000099086062B63846F8BD0000BC000020D0
:1028E0000040002080070020380000203400002035
:1028F000A40000202C000020300000200549CA6AF6
:1029000082600A6B4260496B0160024940318989EB
:102910008181704780F7FF1F10B5FFF765FA024805
:10292000FFF7E6F910BD00005800002010B5014681
:10293000164800E0006803688B42FBD302464368F8
:102940009B188B4204D143684C681B1943600146B5
:102950000A464B689B180468A34211D10C4C0368CB
:102960002468A34208D04B68046864681B194B6054
:1029700003681B680B6005E0054B1B680B6001E0FA
:1029800003680B60884200D0016010BDA4000020E5
:10299000BC00002084B0FFF7FFFE002201213B486D
:1029A000FFF761FD002001210191034602460090DE
:1029B000E12149023648FFF747FC3648FFF79EFF02
:1029C00035A13348FFF726FD34A13148FFF722FD3A
:1029D00042A12F48FFF71EFD42A24AA12C48FFF753
:1029E00019FD4DA24DA12A48FFF714FD50A253A195
:1029F0002748FFF70FFD022002460090032354A151
:102A00002348FFF707FD5DA25FA12148FFF702FD04
:102A100032A11F48FFF7FEFC62A11D48FFF7FAFC38
:102A20002EA11B48FFF7F6FC1A4C67A118486368F3
:102A3000A268FFF7EFFCA2896BA11548FFF7EAFC3B
:102A40006F4C70A112482268FFF7E4FC72A1104895
:102A50006268FFF7DFFC75A10D48A268FFF7DAFC9A
:102A60001EA10B48FFF7D6FC0CA10948FFF7D2FCCA
:102A7000642202A90648FFF7CBFB0128F8D168467B
:102A800002896FA10248FFF7C5FCF1E73C00002076
:102A9000C80000200C0100200A0D00002A2A2A2A62
:102AA0002A2A2A2A2A2A2A2A2A2A2A2A2A2A2A2A86
:102AB0002A2A2A2A2A2A2A2A2A2A2A2A2A2A2A2A76
:102AC0002A2A2A2A2A2A2A2A2A2A2A2A2A2A2A2A66
:102AD0002A2A2A2A2A2A2A2A2A0A0D002A200D0A04
:102AE0000000000053544D333246302055534152BC
:102AF000545F504F4C4C494E47206578616D706C67
:102B0000650000002A20C0FDB3CCC3FBB3C6202063
:102B1000203A2025730D0A00312E30002A20C0FDF6
:102B2000B3CCB0E6B1BE2020203A2025730D0A00B8
:102B3000323031382D30322D303700002A20B7A204
:102B4000B2BCC8D5C6DA2020203A2025730D0A0071
:102B50002A20434D534953B0E6B1BE20203A2056B7
:102B600025642E25642E2564202853544D333220AD
:102B700048414C206C6962290D0A000053544D33C2
:102B80003246302D322E31002A2045424F58BFE2C6
:102B9000B0E6B1BE203A202573202865626F7829FF
:102BA0000D0A00002A202020202020202020202084
:102BB0002020202020202020202043505520D0C538
:102BC000CFA20D0A000000002A204350554944209E
:102BD00020202020203A2025303858202530385811
:102BE00020253038580A0D002A20666C6173682051
:102BF00073697A65203A202564204B42200D0A0033
:102C0000580000202A20636F726520202020202099
:102C1000203A2025640D0A002A2068636C6B20206E
:102C200020202020203A2025640D0A002A207063ED
:102C30006C6B312020202020203A2025640D0A00D2
:102C400072656369766564206973202563200D0AC7
:102C500000000000EFF310800649002807D0064866
:102C60000069C00303D58868421C8A607047886881
:102C7000704700001400002000E000E070470000F2
:102C800010B500290AD00878002807D005487844F4
:102C9000FEF71EFF002801D0002010BD0248784436
:102CA00010BD00005E0200005602000010B50029B1
:102CB0000AD00878002807D005487844FEF708FFB6
:102CC000002801D0002010BD0248784410BD00004B
:102CD0004E0200004602000003B4024878448446D5
:102CE00003BC6047DBE1FFFF0000000000000000C4
:102CF00001020304060708090000000001020304A2
:102D00000212010000440040031201000044004090
:102D100009120100003801400A1201000038014088
:102D2000FF0000000000000000380140A52100085D
:102D3000004000001B000000004400408D210008FE
:102D4000000002001C010000FFFFFFFF0000000068
:102D5000000000000000000000002800010000004A
:102D60000100000002000000040000000800000054
:102D70001000000020000000400000008000000063
:102D80000001000000020000000400000008000034
:102D90000010000000200000004000000080000043
:102DA00000000000000004000000080000000C000B
:102DB00001000000010004000100080001000C00F7
:102DC00002000000020004000200080002000C00E3
:102DD00003000000030004000300080003000C00CF
:102DE0000000000000000000303132333435363747
:102DF000383941424344454640305800303132333F
:102E0000343536373839616263646566403078003E
:102E100004000008000000000000000200010000A3
:102E20001000000002400000000000A000000000B0
:102E300005400000000000C8000000000C40000039
:102E40000000409C00000000194000000020BCBEB3
:102E50000000000034400000BFC91B8E00000004C9
:102E6000B5400000504BCFD06607E2CF0100000014
:102E70006C4100003E8251AADFEEA7340100000041
:102E8000D9420000DCB5A0E23A301F97FFFFFFFFF8
:102E9000B4450000FD25A0C8E9A3C14FFFFFFFFF17
:102EA000FF3F00000000008000000000FF3F000026
:102EB0000000008000000000000000000000000092
:102EC00091230008E9230008000000001C300008DE
:102ED00000000020440000000401000860300008E9
:102EE000440000203C070000200100081C000000F6
:102EF00043000000F8FFFFFF0C0000000E00000080
:102F00000F0000002E000000100100004300000030
:102F1000F8FFFFFF004040404040404040404141FA
:102F2000414141404040404040404040404040409E
:102F30004040404040050202020202020202020238
:102F40000202020202202020202020202020200235
:102F500002020202020290909090909010101010C5
:102F60001010101010101010101010101010101061
:102F700002020202020288888888888808080808F5
:102F800008080808080808080808080808080808C1
:102F900002020202400000000000000000000000E9
:102FA0000000000000000000000000000000000021
:102FB0000000000000000000000000000000000011
:102FC0000000000000000000000000000000000001
:102FD00000000000000000000000000000000000F1
:102FE00000000000000000000000000000000000E1
:102FF00000000000000000000000000000000000D1
:1030000000000000000000000000000000000000C0
:10301000000000000000000061F6FFFF00127A00CF
:1030200000000000000000000000000000000000A0
:10303000000001000000000000000000000000008F
:103040000000000000000000000000000000000080
:103050000000000000000000000000000000000070
:04000005080000C12E
:00000001FF
